:020000040001F9
:10C00000F84300208DC4010095C4010097C40100CD
:10C0100099C401009BC401009DC401000000000000
:10C020000000000000000000000000009FC40100AC
:10C03000A1C4010000000000A3C40100A5C40100C8
:10C04000A7C40100A7C40100B1C90100A7C4010031
:10C05000A7C40100A7C401001DC50100A7C40100B9
:10C06000A7C40100A7C40100A7C40100A7C4010020
:10C07000A7C40100A7C40100A7C40100A7C4010010
:10C08000A7C40100C9C60100A7C40100A7C40100DC
:10C09000EDC60100A7C40100F1C60100A7C401005C
:10C0A000A7C40100A7C40100A7C40100A7C40100E0
:10C0B000A7C40100A7C401000000000000000000A8
:10C0C000A7C40100A7C40100A7C40100A7C40100C0
:10C0D000A7C40100A7C40100A7C40100000000001C
:10C0E0000000000000000000000000000000000050
:10C0F0000000000000000000000000000000000040
:10C10000000000000000000000000000000000002F
:10C11000000000000000000000000000000000001F
:10C40000DFF80CD000F078F800480047D1D80100E0
:10C41000F8430020401E00BF00BF00BF00BF00BFA8
:10C4200000BF00BF00BF00BF00BF00BF00BF00BF14
:10C4300000BF00BF00BF00BF00BF00BF00BF00BF04
:10C4400000BF00BF00BF00BF00BF00BF00BF00BFF4
:10C4500000BF00BF00BF00BF00BF00BF00BF00BFE4
:10C4600000BF00BF00BF00BF00BF00BF00BF00BFD4
:10C4700000BF00BF00BF00BF00BF00BF00BF00BFC4
:10C4800000BF00BF00BFC5D170470000064880470D
:10C4900006480047FEE7FEE7FEE7FEE7FEE7FEE7A9
:10C4A000FEE7FEE7FEE7FEE715C7010001C4010055
:10C4B00040EA01039B0703D009E008C9121F08C026
:10C4C000042AFAD203E011F8013B00F8013B521EA6
:10C4D000F9D27047D2B201E000F8012B491EFBD21D
:10C4E00070470022F6E710B513460A46044619467F
:10C4F000FFF7F0FF204610BD064C074D06E0E06850
:10C5000040F0010394E8070098471034AC42F6D39A
:10C51000FFF77AFF50E6010070E601002DE9FC5FAD
:10C520000025DFF83491A8464FF4807601242F4689
:10C53000304601F059FC38B1D9F80403204203D049
:10C54000304601F047FC2543361D64007F1CB6B21F
:10C55000082FEDD34FF4BE74204601F045FC38B1EE
:10C56000204601F037FC3D4845F00045D0F80080FA
:10C570003B4E15F0FF0F14D0012700242F420CD0A2
:10C5800009EB8401D1F81005D1F81015C0F304208F
:10C5900056F82420C1F3014190477F00641C082C09
:10C5A000ECD3002D56DA00200190401E4CE07019AB
:10C5B00010F8501F90F9000021F0C004401C38D042
:10C5C000012000FA04FA1AEA090F32D04FEA911B4F
:10C5D000204600F09BFE56F82000009010B9BBF1F9
:10C5E000030F26D15146BBF1030F02D10198084336
:10C5F0000190A00000F1A040D0F800071AEA080F4F
:10C60000C0F3014002D0022802D012E0032810D16A
:10C61000BBF1030F07D102281AD00221204601F0F6
:10C62000CAFB7F1CFFB2009818B1009A59462046F9
:10C6300090476D1C042DBAD3002F0BD0074800681B
:10C64000404507D080460198002781463D46AEE729
:10C650000321E3E7BDE8FC9F0060004010050050A7
:10C660005423002000F01F02012191404009800066
:10C6700000F1E020C0F88012704700F01F02012195
:10C6800091404009800000F1E020C0F8001170479F
:10C6900000F01F02012191404009800000F1E020DC
:10C6A000C0F8001270474907090E002806DA00F0AA
:10C6B0000F0000F1E02080F8141D704700F1E02029
:10C6C00080F800147047000007480021C0F84011AE
:10C6D000C0F84411C0F84811C0F84C11C0F800115E
:10C6E000C0F8041101F07CBD0010014001F014BD40
:10C6F000074810B5406830B18047002807D0BDE832
:10C70000104000F003BBBDE8104000F04DBF10BD6D
:10C71000D4200020F0B598480023021D017801259F
:10C72000101D4FF08056062907D11478240704D134
:10C730000478C4F30314032C02D0062904D00FE0BC
:10C740008F4F8E4C7C670EE01478240708D1047854
:10C75000C4F30314032C06D0042C04D0052C02D0FF
:10C76000062907D00EE0D6F84442864FC4F342347F
:10C770003C6002E01478240704D10478C4F3031465
:10C78000032C02D0062906D011E07F4C276827F041
:10C79000807727600EE01478240708D10478C4F36A
:10C7A0000314032C06D0042C04D0052C02D0062937
:10C7B0000AD011E04FF08044C4F80C31C4F81031B5
:10C7C000704C241F236002E01478240704D10478FD
:10C7D000C4F30314032C02D0062905D00CE0694FE2
:10C7E000032464373C600AE01478240704D10478F9
:10C7F000C4F30314032C02D006290DD014E0634FB8
:10C8000005243C60614C78342560604C083423601A
:10C810003F243F1D3C6002E01478240704D10478D3
:10C82000C4F30314052C02D0062957D068E05849F8
:10C830000968584A11605649091D0968121D11609E
:10C84000534908310968121D116051490C310968BA
:10C85000121D11604E4910310968121D11604C49BA
:10C8600014310968121D1160494918310968494A93
:10C870002032116046491C310968121D116044497B
:10C8800020310968121D1160414924310968121DC7
:10C8900011603F4928310968121D11603C492C3153
:10C8A0000968121D11603A4930310968394A40322D
:10C8B0001160374934310968121D1160344938312B
:10C8C0000968121D116032493C310968121D11605E
:10C8D0002F4940310968121D116002E011780907E3
:10C8E0000ED10078C0F30310032803D0042801D030
:10C8F000052805D1D6F85802274900F04F000860F6
:10C9000021487438016841F470010160BFF34F8F12
:10C91000BFF36F8F4FF01021D1F80002002803DB26
:10C92000D1F80402002822DA1C4A15601C48046869
:10C93000002CFCD01524C1F800420568002DFCD065
:10C94000C1F8044201680029FCD013600168002985
:10C95000FCD0BFF34F8F0C48F0380168114A01F446
:10C96000E06111430160BFF34F8F00BFFDE70F4946
:10C970000D480860F0BD0000E00F00F00DF0ADBA0A
:10C9800000C007403C050040FCED00E010560040B0
:10C990000404001020C50040E40E004004E50140FE
:10C9A00000E401400400FA050090D003E8200020D4
:10C9B0000348007F08B101F0FDBC01F077BC000026
:10C9C000AC23002002E008C8121F08C1002AFAD1D7
:10C9D00070477047002001E001C1121F002AFBD1FF
:10C9E00070472DE9FC5F0025168807461580406BCF
:10C9F00014468946A8464FF00C0A11234FF0020B4B
:10CA000098B101784846032E48D380F800B02288B8
:10CA1000521C92B2228083542288521C92B22280ED
:10CA200009F802102088401C20803A6BDAB1208877
:10CA3000494600F11205B54230D80B542088102326
:10CA4000401C80B220800B542088401C20800F2086
:10CA50002388155C401ECD54238840B25B1C238084
:10CA60000028F5DA454697F82E0030B133462246C5
:10CA7000494600F0DFFD050011D197F82D0030B1D7
:10CA800032462146484600F0B1FA050007D1B87891
:10CA900020B32088C846001DB04202D95046BDE8E8
:10CAA000FC9F684679DF0028F9D12188032008F827
:10CAB000010020881921401C80B2208008F8001055
:10CAC0002088401C80B2208000EB0801BDF80000E7
:10CAD00001F0DCFC0146208808442080F878B8B1D9
:10CAE000228897F90310D31C4846B342D6D800F8E1
:10CAF00002B022880123521C92B2228083542288E1
:10CB0000521C92B2228009F802102088401C20801A
:10CB10007868B8B1218890F90020CB1C4846B34210
:10CB2000BCD800F801B021880A23491C89B22180B1
:10CB300043542188491C89B2218009F801202088AA
:10CB4000401C2080388950B1CDE900464B46062272
:10CB5000022107F1080001F002FD05009FD1388A8B
:10CB600050B1CDE900464B460722032107F11000E2
:10CB700001F0F5FC050092D1388B50B1CDE90046AB
:10CB80004B461522142107F1180001F0E8FC0500BE
:10CB900085D1386A30B133462246494600F014FC4C
:10CBA0000500DBD1786A30B133462246494600F0B1
:10CBB00045FF0500D2D197F82C0038B13346224604
:10CBC0004946384601F020FA0500C7D1387838B117
:10CBD000334622464946384600F062FF0500BDD183
:10CBE00028465CE710B586B018216846FFF779FC47
:10CBF00000244020ADF810008DF8004001948DF81D
:10CC00000840ADF81240684673DF08B100F07EF8C6
:10CC100003494FF400300860081F046006B010BDDF
:10CC20000C05005070B50024084D05E0686810F848
:10CC3000340000F09FFF641C28788442F6D3044837
:10CC40000068BDE8704000F007B90000A020002097
:10CC500048E6010070B50024064D06E06868012131
:10CC600010F8340000F0AAFF641C28788442F5D341
:10CC7000002070BDA0200020F8B515460C460646E1
:10CC8000052A01D20720F8BD01F07AF818B901F0A1
:10CC90004DF80028F7D1104900204E600C70C1E912
:10CCA00002500E4D08610DE006EBC400696800916A
:10CCB00081788DF801100078094A694600F0D0FFAC
:10CCC0000028E0D1641EE4B2EED2BDE8F840054A87
:10CCD0000021024800F026B8A020002048E601000C
:10CCE00051D50100B1D40100BFF34F8F0548016851
:10CCF000054A01F4E06111430160BFF34F8F00BFAB
:10CD0000FDE700000CED00E00400FA050EB500217F
:10CD10000091CDE901106A4644F20100FFF7E4FFFB
:10CD20000EBD0000074B9B6823B12AB120B10068FB
:10CD3000037C1BB108207047072070474174426193
:10CD400000207047B42000202DE9F0478046994626
:10CD500014460F4690074FF0000634D11C4D8CB39B
:10CD600001F0C0F80320C5F81490287004F11800F1
:10CD7000002107EB4703AC6004EBC102491C1670AD
:10CD800056709770506000EBC3000329F4DBEE602F
:10CD90006E70AE701420FFF765FC06211420FFF7BB
:10CDA00082FC1420FFF769FC0A49C1F800800621C3
:10CDB0001120FFF778FC0748001F00682861002059
:10CDC000BDE8F08701E00720FAE7AE60FBE700006E
:10CDD000B4200020081501402DE9F843DFF87090D9
:10CDE0000D461746D9F80810044651B34CB3052D2B
:10CDF00002D20720BDE8F883606910B3607C012887
:10CE000021D0002601F078FBD9F80810804601EB0C
:10CE1000C800694601F08FFBB8B1012100F8041B7E
:10CE20000C4910C0096880E8E200D9F8081001EB4D
:10CE3000C8009DF8001041701420FFF729FC002065
:10CE4000D8E70820D6E72E46DCE70420D2E700002A
:10CE5000B420002004150140F8B5124E0446B16814
:10CE6000E1B1DCB16069C8B10027277401F044FB6F
:10CE70000546B068694600EBC50001F05CFB78B17F
:10CE8000022101704460B0689DF8001000EBC500FD
:10CE900041701420FFF7FCFB3846F8BD0820F8BDB0
:10CEA0000420F8BDB4200020F0B50C4693B01F213B
:10CEB0000726ADF80010ADF80410002750B1C17876
:10CEC00049070DD56A4602A9FFF78BFD002808D156
:10CED00002AD02E00025ADF800706CB1E07810B151
:10CEE000304613B0F0BD01AA0AA92046FFF779FD2C
:10CEF0000028F6D10AAA02E00022ADF80470BDF8BD
:10CF00000400C3B2BDF80000C1B2284672DFE8E7F2
:10CF100070B5054601461C220F48FFF7C9FA0F4CB1
:10CF200000262670286830B1016861604068A06002
:10CF3000201D7ADF02E00948001D7BDF00280AD1AE
:10CF40004FF6FF7060806670BDE87040044A0021B3
:10CF50000448FFF7E7BE70BD382300208C20002076
:10CF600099E4010034E6010070B51E4C06880025E6
:10CF70001B49E289102E15D01B4B112E1CD0122EEE
:10CF800029D0502E17D130F8061F914213D1418974
:10CF9000022910D1007B10F0010F11D0BDE87040C4
:10CFA00000F058BA83884B808369CB60C069086100
:10CFB0004D70002AF2D070BD4FF6FF7048804D7062
:10CFC0001868FFF749FF0028F5D0A1690029F2D0C1
:10CFD000BDE8704008478268CA60C0680861DDE744
:10CFE0008C2000203823002034E601007CB5054663
:10CFF00008880C460930904201D90C207CBD684657
:10D0000071DF0028FAD121880820685420881B216C
:10D01000401C80B2208029542088401C80B220808F
:10D020002844DDF801100160BDF8051081802088DA
:10D03000801D80B220809DF8001001B1012129548B
:10D040002088401C208000207CBD000010B50446D4
:10D0500000F0E2FE2046FFF787FF2146BDE81040C2
:10D06000014800F031B80000FC22002030B5044631
:10D0700085B04FF6FF70A082124B08680D46A06184
:10D080000FCB8DE80F0004F11201684663DF002822
:10D0900016D1A07C8DF8120041F22350ADF810009B
:10D0A000224604A90120A0DF002809D129462046F4
:10D0B00000F07AF8002803D12946204600F0E4FA6F
:10D0C00005B030BD38E601000A88102A10D0112AB8
:10D0D00010D0502A11D131F8062F43889A420CD132
:10D0E0004A89012A09D18269002A06D0097B1047A2
:10D0F000898801E04FF6FF718182704703B585B0E2
:10D10000012100220092ADF81010019202920392C8
:10D110008DF802104189ADF8001006A9039104A909
:10D120000291808A6946A6DF07B000BD00B51A48A3
:10D1300089B00023406807904822184907A800F0EA
:10D14000D1FF08B1FFF7E2FD6A460121002000F09F
:10D15000B3FF08B1FFF7DAFD114800F009FF08B18D
:10D16000FFF7D4FD684600F09DFF08B1FFF7CEFD44
:10D1700005A871DF08B1FFF7C9FD05A9002070DF20
:10D1800008B1FFF7C3FD074800F082FF002801D077
:10D19000FFF7BCFD09B000BD2CE60100B422002061
:10D1A000E81F00204DD0010030B58FB000240546A7
:10D1B00007949DF81C001C2120F00F00401C20F05B
:10D1C000F00010308DF81C009DF81D0020F00F00BD
:10D1D000401C20F0F00010308DF81D009DF81E005E
:10D1E00020F00600801C8DF81E006846FFF779F9D4
:10D1F0009DF80000019440F012008DF8000007A88F
:10D20000CDE9044003940694A87C8DF83A0041F2DD
:10D210002450ADF838000D949DF83400142120F00E
:10D220000F00401C20F0F00010308DF834009DF805
:10D23000350020F0FF008DF835009DF8360020F015
:10D240000600801C20F019008DF8360008A8FFF7B2
:10D2500048F90EA808900DA809900120ADF8280003
:10D26000ADF82A40ADF82C000C94288805F10A038B
:10D2700008AA6946A2DF0FB030BD000010B50D2826
:10D280000AD10848FFF73AFF002809D0A0F540511D
:10D29000023905D0082803D0BDE81040FFF736BD9D
:10D2A00010BD0000FC22002005494FF0FF32082885
:10D2B00041F8202002D3084480F84820704700003D
:10D2C00054230020F0B54FF0FF3512B1002308269B
:10D2D00001E008230C260C4C05E000BF54F8237035
:10D2E0007F1C04D05B1CB342F8D32846F0BD26183F
:10D2F0005DB286F8305044F82310002AF5D1E118C9
:10D3000081F84800F1E70000542300200249084456
:10D3100090F9300070470000542300202DE9F05FA1
:10D320002648C168F1B3DFF898B00E688146DBF893
:10D3300000400769C078E11B21F07F45ED1CB0B9C2
:10D34000DFF880804FF48030C8F84403C8F8040345
:10D350001120FFF787F91120FFF78FF94FF0010A2D
:10D36000C8F800A02F20FFF755F889F803A0B542B0
:10D3700000D23546124BE8193C3320F07F4018604C
:10D38000DBF800105A46091B21F07F41001B20F0FA
:10D390007F40C91C81420FD9106818602F20FFF709
:10D3A00039F800E004E0BDE8F05F1120FFF770B944
:10D3B000BDE8F05F00F096BDBDE8F09FB42000200E
:10D3C00004150140001001402DE9F0411788064680
:10D3D000B81D14460D46984202D90C20BDE8F081D4
:10D3E0003188072206290AD34FF4486C4FF6FF73A1
:10D3F000614501D9994202D17088062801D21046B0
:10D40000ECE7604501D99842F9D1994203D098429E
:10D4100001D08142F3D80520E85520881221401C14
:10D4200080B2208029542088401C80B2208041197D
:10D43000308801F02BF82188084480B220804119FF
:10D44000708801F023F82188084420800020C5E777
:10D45000FFF75CBCF8B5134800F0DEF8114D00266C
:10D46000114C0C3D30B16169B9B101208DF800005B
:10D47000684611E0287820B1616971B18DF80060CB
:10D48000F6E7687858B1A168084800220068FFF7FD
:10D49000A3FC10B1A16901B188472E70F8BD616885
:10D4A000F2E70000982000203823002034E6010035
:10D4B0002DE9F04100260125144C22E06068226924
:10D4C00000EBC607387805FA00F1114217D08A43FD
:10D4D000226100F021FC02463878E36805FA00F189
:10D4E000194002FA00F3994209D17978012901D053
:10D4F000012100E0002151407A6802B19047761C7A
:10D50000F6B220788642D9D3BDE8F081A020002071
:10D510000E4910B54A788C780023A24212D0521CD2
:10D52000D2B24A70022A00D14B70084A4B781832A6
:10D5300052F8232002600869104420F07F400861FF
:10D54000012010BD0360002010BD0000B4200020A9
:10D550002DE9F041124E07460125BD403068FFF726
:10D560007BFC00280DD10F4C2069284207D138469A
:10D5700000F0D2FB0028E06805D0284304E0A8436F
:10D580002061BDE8F081A843E06020692843206164
:10D59000A1683068BDE8F0410022FFF71DBC000023
:10D5A00048E60100A0200020F8B51A4C2078002899
:10D5B0002ED0206928B10026E06820B1002526B1D0
:10D5C00010E00126F8E70125F9E7684652DF052853
:10D5D00003D020B1FFF79AFB04E0012602E02169A5
:10D5E0000098884785B96088ADF800006946A06852
:10D5F00061DF052803D020B1FFF788FB04E0012597
:10D6000002E0D4E902018847002EDED0002DD6D0FA
:10D61000F8BD0000D4200020054940880A889042C7
:10D6200004D34988884201D8012070470020704700
:10D630009020002030B51488E51C9D4201D90C20B3
:10D6400030BD02250D5513881C245B1C9BB2138032
:10D65000CC5413885B1C9BB21380012807D002288E
:10D6600007D0032807D0042807D0072030BD0020AA
:10D6700004E0012002E0CD5401E00320C8541088EA
:10D68000401C1080002030BD30B58FB005461C21F5
:10D690006846FEF726FF00249DF80000019440F044
:10D6A0000A008DF800000394049405940694A87C65
:10D6B0008DF8360041F22550ADF834000C949DF8F9
:10D6C0003000142120F00F00401C20F0F00010303A
:10D6D0008DF830009DF8310020F00F00401C20F044
:10D6E000F00010308DF831009DF8320020F0060077
:10D6F000801C20F019008DF8320007A8FEF7F1FE1B
:10D700000DA807900CA808900120ADF82400ADF8F2
:10D710002640ADF828000B942888AB1C07AA694660
:10D72000A2DF0FB030BD000010B5064B00204FF453
:10D7300000221C1F11B11A60206010BD2260186009
:10D7400010BD00000C0500502DE9F047DFF8ACA03B
:10D75000DAF80C009AF8004080469AF80460DAF88B
:10D760000890DAF810703AE009EBC4052A7833E043
:10D7700002EB42016B68521C03EBC101AB78D2B2E1
:10D78000934200D100220B78022B02D0032B23D12D
:10D790001FE0D1F804C00346014603E0614503D011
:10D7A0000B46C969C1B1F9E7B1B18B4205D1C06976
:10D7B00018B9134F0126BE600027D1F800C0C9690F
:10D7C000D96149B10B6863440B6005E00174C0691D
:10D7D00000E000210028F9D169789142C8D1641E87
:10D7E000E4B2C1D2CAE903078AF80460404502D016
:10D7F0000120BDE8F0870020FBE70000B4200020F6
:10D80000001001402DE9F04705462F4800268046CC
:10D810000778D0F80C904BE0D8F8080000EBC7046C
:10D8200040E002D02846ED691EE02078616800EBF8
:10D830004002401CC0B201EBC2012070A2789042AD
:10D8400000D126700A784868012A2DD1027C5ABB83
:10D850008A684260CA6882600A69C26049698161F7
:10D8600098F8041001B146604268D8F81030DFF82B
:10D870005CC0D11A21F07F41614502D28268114417
:10D8800006E0991A826821F07F418A4202D9511A32
:10D89000016000E006604660012186600174C66197
:10D8A00000F080FC002DBCD1207861788842BCD18A
:10D8B0007F1EFFB2B0D2D8F80C10494502D001202B
:10D8C000BDE8F0870020FBE7B4200020FFFF7F00C9
:10D8D000002001259EB0032605FA00F111F4602F07
:10D8E00004D0810001F1A041C1F80067401C20284C
:10D8F000F2D346494FF4602008600024081D0460FC
:10D900002346434A05212046FFF71EFA08B1FFF7D8
:10D91000FDF940F2666201213E48FFF7ADF908B11A
:10D92000FFF7F4F9FFF702FC9DF808003AA120F098
:10D930000F00401C20F0F00010308DF808000D2280
:10D9400002A87CDF08B1FFF7E1F900945020ADF8A0
:10D950000000A0200194ADF80200ADF804404FF49F
:10D96000C870ADF8060068467ADF08B1FFF7CEF957
:10D970002D48009069462D48FFF778FB08B1FFF766
:10D98000C5F92B48382100681C902848807C8DF808
:10D9900072006846FEF7A5FD02208DF800008DF8A4
:10D9A000025006208DF8030038210EA8FEF799FDDD
:10D9B0001CA81390ADF848500EA96846FFF774FAFA
:10D9C00008B1FFF7A3F91C216846FEF78AFD4FF462
:10D9D0002020CDE90040801002901648059016489E
:10D9E0008DF80C600690ADF80E408DF8104068463A
:10D9F000FFF78EFA08B1FFF789F9FFF7F3F848DF70
:10DA00000028FCD0FFF782F9F9E700000805005074
:10DA1000EC200020842000204E6F726469635F4216
:10DA20006C696E6B7900000029D70100FC22002090
:10DA30002CE6010099DE010051D4010070B51446B6
:10DA400082880E4605462088111D0144921C994289
:10DA500001D8FE2A01D90C2070BD521C32542088F6
:10DA6000FF21401C80B2208031542088401C80B2AD
:10DA700020808119288800F009FD2188084480B29F
:10DA80002080AA8842B1A96841B13044FEF710FD58
:10DA90002088A98808442080002070BD072070BD20
:10DAA000F8B50E46017814460546012901D168787B
:10DAB00030B12088821C9A422DD8012902D006E07C
:10DAC0000720F8BD69780144891C994223D8181AA7
:10DAD000801E87B2ADF800702188B01C08446946EA
:10DAE0007DDF0028EDD12878022805D1BDF800108F
:10DAF000B94201D809210AE00821012805D1687836
:10DB0000B84202D8ADF8000001E0ADF80070BDF8F1
:10DB10000000FE2801D90C20F8BD2288401CB0541A
:10DB20002088401C80B2208031542088401C2080F6
:10DB3000BDF80010084420800020F8BD4907090EF8
:10DB4000002806DA00F00F0202F1E02282F8141D2C
:10DB500003E000F1E02282F8001400F01F0201212E
:10DB600091404009800000F1E020C0F88012C0F828
:10DB70000011704710B5044600F09CF928B120460A
:10DB8000BDE81040002100F016B9204600F09EF9D3
:10DB900000280FD02046FFF7B9FB074A02EB8001AF
:10DBA000D1F8103523F00103C1F81035012181406F
:10DBB000C2F8081310BD0000006000402DE9F047D6
:10DBC0008846814600F076F90124224E0028484616
:10DBD00018D0FFF79BFB304490F8480080090328D9
:10DBE00002D0012806D007E01B48006804FA09F4B7
:10DBF000204201D1022100E003214846BDE8F04760
:10DC000000F0D9B800F062F9002820D04846FFF7AC
:10DC10007DFB0546114F4FF4807007EB850100EB4B
:10DC20008500D1F8102580B242F00102C1F810251C
:10DC300000F0D0F8B8F1000F09D04846FFF766FBB6
:10DC400056F82000002802D0AC40C7F80443BDE8D5
:10DC5000F0870000542300201005005000600040B1
:10DC60002DE9FC41DFF8A480044608EB04000027FE
:10DC700090F930001346C0170E46401C01D008270B
:10DC800040E0F27819462046FFF71CFB0546401C91
:10DC900037D0B07848B1A00000F1A040D0F800170C
:10DCA00021F00201C0F8001707E000217378204638
:10DCB00000910A46019100F06DF8F078C0B1144867
:10DCC000317800EB8500D0F81025124B1A40C0F8CF
:10DCD00010254FF4F8524FF4403302EA042203EACD
:10DCE00001410A43D0F810150A43C0F8102509E095
:10DCF00008EB0500327810F8481F41EA82110170E4
:10DD000000E004273846BDE8FC81000054230020D1
:10DD100000600040FFE0FCFF03490968C14011F0CA
:10DD2000010000D0012070471005005070B5124D61
:10DD300095F8540008B1082070BD0020411E2A1833
:10DD4000401CC0B282F830102028F8D300242046AE
:10DD5000FFF7AAFA641CE4B20C2CF8D3062108469B
:10DD6000FFF7ECFE05494FF00040C1F80403012025
:10DD700085F85400002070BD54230020006000404E
:10DD8000034890F85400002800D00120704700009C
:10DD90005423002030B541EA4201DDE9034541EA60
:10DDA0008301800041EA042100F1A04041EA0541DD
:10DDB000C0F8001730BD800000F5E06000F1A04021
:10DDC000026822F440320260026842EA01410160C6
:10DDD00070470000034908B508440021016000684D
:10DDE000009008BD0060004002494058012800D062
:10DDF00000207047006000404058002800D00120FB
:10DE00007047D0F80403084000D001207047405804
:10DE1000002800D00120704770B51D4906880022F7
:10DE20000B1F1C4C4FF48025102E0CD0112E15D03A
:10DE30002046132E00881FD0522E27D100231A46C9
:10DE40001946A9DF1CE00D601A604FF400351D6013
:10DE50000A6080882080FEF7FDFE11E01D600A60E8
:10DE60004FF6FF702080FEF7DDFE08B1FEF74EFF93
:10DE7000BDE87040FEF7B6BE00231A4685217FDF5D
:10DE8000002803D0BDE87040FEF740BF70BD000021
:10DE90000C050050802000200078002807D104489D
:10DEA0003B21008876DF002801D0FEF72FBF7047A6
:10DEB000802000200449084490F93000082801DB44
:10DEC0000120704700207047542300200449084473
:10DED00090F93000082801D20120704700207047D7
:10DEE0005423002070B5012670044FF0E021002576
:10DEF000C1F88001084C4010C4F84803C4F8080376
:10DF000066602F20FEF786FAA660044C2F2025615C
:10DF1000FEF780FAE57070BD00100140B4200020CB
:10DF200009480A490022C37DC1F8082143B1D1F84C
:10DF30001815437EC268D154417E491C4176704712
:10DF4000D1F8180570470000AC23002000200040E5
:10DF50001FB501228DF8080004488DF800200191BA
:10DF6000D0E90012684690471FBD0000AC23002096
:10DF700008B502490020009108BD00008020002063
:10DF800010B50121202803DA1D4A8140114004E028
:10DF9000402803DAA0F12002914041B1002809DABB
:10DFA00000F00F0101F1E02191F8141D06E042F2AA
:10DFB000010010BD00F1E02191F800144909082981
:10DFC00014D299B1012911D004290FD005290DD0FF
:10DFD0000C4A946800F01F0301219940400944B1A4
:10DFE00052F820300B4342F8203007E042F20200A2
:10DFF00010BD800000F1E020C0F80011002010BD2D
:10E00000FC06FFBCEC2300202DE9F0410746806AA6
:10E0100014468846C8B3002531E000BFB96A05EB55
:10E02000450001EB8006B088801CFE2802D90C2038
:10E03000BDE8F0812288401C08F8020020881622E2
:10E04000401C80B2208008F800202088401C80B24C
:10E05000208000EB0801308800F018FA218808447D
:10E0600080B22080B28842B1B16871B14044FEF7FD
:10E070001FFA2088B188084420806D1CEDB297F803
:10E080002C00A842CAD80020D2E7FFE70720CFE73C
:10E0900018B10349C860002070470E207047000087
:10E0A000D42000201CB5034901910091694660DF2E
:10E0B0001CBD00008020002070B50E4605461446A9
:10E0C00014211046FEF70DFA012020800021216165
:10E0D00021732672657205B1A072002070BDFEF733
:10E0E00003BE000030B409B18C0702D0072030BC59
:10E0F0007047074C0125A16062800649636010DF0C
:10E100000028F4D1257030BC1620FFF739BF00007D
:10E11000D4200020DFE001002DE9F84F204C00253D
:10E120006846D4E903B6FFF7F3F98046FFF70CFB26
:10E130000746A946B8F1000F25D00023009ACC4627
:10E14000E06819E007680146974202D9BA1A0260EE
:10E1500014E0C1F800C0D1F80C80D21BC8693B4460
:10E160008A46B8F1000F07D0F71827F07F47C1E9BA
:10E170000178CAF81C500D460028E3D1E06028461B
:10E18000FFF740FB04E02846FFF73CFB00B917B15E
:10E190005846FFF7C3F884F80490BDE8F88F0000F4
:10E1A000B42000200D4B10B5D96831B102680C685D
:10E1B000A24204D8A21A0A60C161D86010BD0B4601
:10E1C00003E00B46C969121B21B10C689442F8D3D5
:10E1D000A41A0C600260C161D86110BDB420002097
:10E1E0002DE9F0411D4DEC68002C35D01C4800276E
:10E1F00000682969B846401A20F07F462068B0427E
:10E2000015D82246361A0744E469107C68B182F8B2
:10E2100010806B6933B1D2E90501984728B1FEF748
:10E2200075FD02E0D2E905108847002CE6D1697837
:10E23000A878814206D1401CC0B2A870022801D142
:10E2400085F802800548A978183040F82170BDE8AB
:10E25000F0411420FEF71CBABDE8F081B420002084
:10E2600004150140064A0020C2F81C010548838AB3
:10E270008168C95C838A5B1C8382C2F81C15704765
:10E2800000200040AC2300201FB500218DF80800BD
:10E2900005488DF80010826801928175D0E900125E
:10E2A000684690471FBD0000AC2300202DE9FF41C8
:10E2B0003E4D4FF400712846FFF7A3FD01273C4C6B
:10E2C0004FF40178002600B34FF492712846FFF70F
:10E2D00093FDD0B1C5F82461C5F80883A07E00B9CC
:10E2E0006F6002208DF80000D5F88004C5F8800426
:10E2F0000390E07D8DF80800E0680190E6752676D1
:10E30000D4E900126846904724E004212846FFF72C
:10E3100078FDF8B14FF484712846FFF76DFDC8B160
:10E32000FFF7FEFDE07D617E884213D1227E3AB187
:10E33000607EE168E2752269E2602676667607E033
:10E34000A07E00B96F60C5F80883E675607EE1685D
:10E35000FFF7FEFD4FF48E712846FFF74DFD58B1D3
:10E36000A18AA07D814202D2FFF77CFF04E0C5F8BC
:10E370001C6108B1FFF788FF4FF4A2712846FFF730
:10E380003BFD00280FD0C5F84461A07E00B12F608E
:10E39000E07D002807D0E675607EE16804B0BDE846
:10E3A000F041FFF7D5BDBDE8FF810000002000402F
:10E3B000AC2300207FB5334C4FF492712046FFF719
:10E3C00026FD314D0026B0B1C4F8246102208DF83D
:10E3D0000000D4F88004C4F880040390D4F83C050D
:10E3E0008DF80800E8680190EE752E76D5E90012E8
:10E3F000684690471FE04FF488712046FFF707FDFD
:10E40000C8B1C4F81061D4F83C05E97DC0B28142BE
:10E4100011D12A7E5AB1E968D4F8003223F02003E2
:10E42000C4F80032EA752A69EA602E7601E0EE75DA
:10E43000E968FFF78DFD4FF4A2712046FFF7E7FC76
:10E4400050B1C4F84461E87D30B1EE75D4F83C05B4
:10E45000E968C0B2FFF77CFD4FF490712046FFF7EA
:10E46000D6FC00280CD0C4F82061A87D002807D075
:10E47000D4F84C0504B0C0B2BDE87040FFF704BF4B
:10E480007FBD000000200040AC2300200870000A7F
:10E49000487002207047000038B515494888A0F53B
:10E4A0007F42FF3A23D04A78124C521CD2B24A70B3
:10E4B000237B93420AD3091D75DF002817D0A16979
:10E4C000002914D001B0BDE83040084700254D7048
:10E4D000217C29B13B2176DF10B1A16901B18847C8
:10E4E0006169002903D08DF800506846884738BD1F
:10E4F0008C20002038230020EFF30580C005C00DDC
:10E5000013D0103840B2002806DA00F00F0000F1F6
:10E51000E02090F8140D03E000F1E02090F80004F2
:10E520004009022803D0062803D0022070470020AB
:10E5300070470120704742788378521CD2B29342D0
:10E5400000D100220378934201D1002070470A7065
:10E550004168407800EB400001EBC00070472DE9B6
:10E56000FC411646DDE90854CDE900541F468046BB
:10E57000022200F00CF8002807D1CDE900543B46F8
:10E5800010223146404600F002F8BDE8FC812DE93A
:10E59000FC5F0026DDE90C4B994692468E4680468C
:10E5A0002788354630E0D8F80400002200EB8500CB
:10E5B00069460068019001A865DF002830D19DF808
:10E5C000000050451FD10EB1002100E00221228839
:10E5D00008441118594522D846B9521C90B22080DF
:10E5E00009F800E02088401C20800126218801A82D
:10E5F00001EB0902694665DF002811D120889DF8EA
:10E600000010084420806D1CB8F80000A842CADC45
:10E6100056B12088C01B401E80B2FF2802D90C20B2
:10E62000BDE8FC9F09F807000020F9E7231500006A
:10E63000010000071823002023D1BCEA5F782315CE
:10E64000DEEF121200000000CC23002003000000C7
:10E6500070E60100802000206C000000C4C90100A9
:10E66000DCE60100EC2000200C230000D4C90100EE
:10E67000FFFF00000D0003007DD20100000000003C
:10E68000000000000000000000000000000000008A
:10E69000000000000000000000000000000000007A
:10E6A000000000000000000000000000000000006A
:10E6B000000000000000000000000000000000005A
:10E6C000000000000000000000000000000000004A
:0CE6D00000000000000000000090D003DB
:040000050001C40131
:00000001FF
